:0400000007EF00F016
:100008000182BCED03F004EF04F03650D8B40FEFD2
:1000180000F011EF00F02DEF00F0010E046E0F0E4E
:10002800056E7F0E3EEC04F081503F0B816E375019
:10003800D8B421EF00F023EF00F028EF00F0815052
:100048000309816E82EF00F08150FC0B816E82EF14
:1000580000F03550D8B433EF00F035EF00F051EF31
:1000680000F0010E046E0F0E056E7E0E3EEC04F0DD
:100078008150FC0B816E3750D8B445EF00F047EF44
:1000880000F04CEF00F08150C009816E82EF00F063
:1000980081503F0B816E82EF00F03450D8B457EF97
:1000A80000F059EF00F072EF00F0010E046E0F0E31
:1000B800056E480E3EEC04F03750D8B466EF00F0F9
:1000C80068EF00F06DEF00F08150C309816E82EF98
:1000D80000F081503C0B816E82EF00F08150FC0BE8
:1000E800816E81503F0B816E81503C0B816E010EF9
:1000F800046E0F0E056E200E3EEC04F0120009503F
:100108000A10D8A48AEF00F08CEF00F099EF00F005
:100118000B50D96EDA6A300EDF6E0B50D96EDA6A80
:10012800010ED926DF6AEEEF00F00D6A000E0C6EA4
:1001380009C00EF00AC00FF0B1EF00F00C4A0D2A0A
:100148000EC002F00FC003F0056A0A0E046EE9EC57
:1001580002F002C00EF003C00FF00E500F10D8A42A
:10016800B8EF00F0BAEF00F0A2EF00F009C00EF00F
:100178000AC00FF00B500C24D96EDA6ADF6AE5EF7B
:1001880000F00C06D8A00D060B500C24D96EDA6AC4
:100198000EC002F00FC003F0056A0A0E046E59EC97
:1001A80003F00250300FDF6E0EC002F00FC003F0F4
:1001B800056A0A0E046EE9EC02F002C00EF003C0F4
:1001C8000FF00E500F10D8A4ECEF00F0EEEF00F097
:1001D800C5EF00F012001050D96EDA6A010ED92668
:1001E800DF50126E1050D96EDA6ADF50136E12505B
:1001F8001B6E13C01CF01BC009F01CC00AF0150EC2
:100208000B6E83EC00F01C5007E1090E1B5CD8B0A4
:1002180010EF01F012EF01F01EEF01F0FA0E046E7C
:100228002F0E056E010E066E070E076EA1EC02F08A
:100238004AEF01F01C5007E1630E1B5CD8B027EFB2
:1002480001F029EF01F035EF01F0FB0E046E2F0EDF
:10025800056E010E066E080E076EA1EC02F04AEF5D
:1002680001F0E70E1B5C030E1C58D8B03EEF01F0FE
:1002780040EF01F04AEF01F0FC0E046E2F0E056E00
:10028800010E066E090E076EA1EC02F0150E046E43
:10029800056A010E066E060E076EA1EC02F012004A
:1002A800270E0A6E1F0E0B6E290E0C6E56EC02F00E
:1002B8002950D8A462EF01F064EF01F08EEF01F04D
:1002C800B0EF01F01F0E106E29C011F008EC02F01B
:1002D800B0EF01F01F0E086E29C009F072EC04F0AF
:1002E800B0EF01F01F0E106E29C011F0EFEC00F016
:1002F800B0EF01F01F0E106E29C011F022EC03F0D0
:10030800B0EF01F01F0E026E29C003F08BEC03F072
:10031800B0EF01F027C01DF028C01EF01E50000AE3
:10032800D8B499EF01F0B0EF01F01D50100AD8B41D
:1003380066EF01F0300AD8B46EEF01F0100AD8B4B5
:1003480076EF01F0700AD8B47EEF01F0100AD8B445
:1003580086EF01F0B0EF01F01200956A9450F80BA7
:10036800946E820E046EDE0EE82EFED7042EFCD7A5
:10037800000E026E300E58EC04F0210E046E760E5C
:10038800E82EFED7042EFCD700D0000E026E300EE9
:1003980058EC04F0A60EE82EFED700D0000E026E30
:1003A800300E58EC04F0000E026E380E58EC04F0D3
:1003B8000D0E046EFC0EE82EFED7042EFCD7000EA0
:1003C800026E0C0E58EC04F00D0E046EFC0EE82EB6
:1003D800FED7042EFCD7000E026E010E58EC04F076
:1003E8000D0E046EFC0EE82EFED7042EFCD7000E70
:1003F800026E060E58EC04F00D0E046EFC0EE82E8C
:10040800FED7042EFCD712001050D96EDA6A010EFE
:10041800D926DF50126E1050D96EDA6ADF50136E8B
:1004280012501B6E13C01CF01BC009F01CC00AF050
:10043800150E0B6E83EC00F01C5007E1090E1B5CD7
:10044800D8B029EF02F02BEF02F037EF02F0FB0EE5
:10045800046E2F0E056E010E066E010E076EA1ECDE
:1004680002F04CEF02F01C5007E1630E1B5CD8B0A1
:1004780040EF02F042EF02F04CEF02F0FC0E046E87
:100488002F0E056E010E066E020E076EA1EC02F02D
:10049800150E046E056A010E066E000E076EA1ECBD
:1004A80002F0120060AE5BEF02F05DEF02F09CEF2D
:1004B80002F021EC04F00A50D96EDA6A02C0DEFFBD
:1004C80003C0DDFF0C50D96EDA6A65500F0BDF6E82
:1004D800660E106E0F0E116E136A000E126E83EF09
:1004E80002F012501024D96E13501120DA6E0B50FE
:1004F8001224E16EE26ADFCFE7FF124A132A0C509A
:10050800D96EDA6ADF500D6E0E6A0D50125C135008
:10051800800A0F6E0E50800A0F58D8A096EF02F08E
:1005280098EF02F075EF02F0609EA490A0EF02F041
:100538000C50D96EDA6ADF6A12000750800F086E15
:100548000604D8A4AAEF02F0ACEF02F0AFEF02F075
:100558000750C00F086E000E026E085058EC04F0E9
:10056800D0EF02F0010E026E04C0F6FF05C0F7FFDF
:10057800F86A050EF76403D00800F55005D0F6CFE9
:10058800E9FFF7CFEAFFEF5058EC04F0044A052AD8
:10059800530EE82EFED7000004C0F6FF05C0F7FF93
:1005A800F86A050EF76403D00800F55005D0F6CFB9
:1005B800E9FFF7CFEAFFEF500009D8A4E6EF02F011
:1005C800E8EF02F0B6EF02F01200076A000E066EBE
:1005D80004500510D8B4F3EF02F0F5EF02F01DEF68
:1005E80003F0010E086EFDEF02F0D89004360536D0
:1005F800082A05AE02EF03F004EF03F0F9EF02F06A
:10060800D890063607360450025C05500358D8A027
:1006180010EF03F012EF03F017EF03F00450025E3F
:100628000550035A0680D89005320432082E04EF8C
:1006380003F006C002F007C003F012001050D96E94
:10064800DA6A010ED926DF50126E1050D96EDA6AB6
:10065800DF50136E12501B6E13C01CF01BC009F044
:100668001CC00AF0150E0B6E83EC00F01C5009E15B
:100678000A0E1B5CD8A043EF03F045EF03F04FEFE1
:1006880003F0FB0E046E2F0E056E010E066E0C0EA7
:10069800076EA1EC02F0150E046E056A010E066ED7
:1006A8000B0E076EA1EC02F0120004500510D8B42E
:1006B80060EF03F062EF03F086EF03F0010E066EC1
:1006C8006AEF03F0D89004360536062A05AE6FEFB8
:1006D80003F071EF03F066EF03F00450025C05507D
:1006E8000358D8A07AEF03F07CEF03F080EF03F013
:1006F8000450025E0550035AD89005320432062E83
:1007080071EF03F002C002F003C003F012000250C0
:10071800D96EDA6ADF50046EA8EF03F0010E366E68
:10072800356A346ABBEF03F0010E356E366A95EF11
:1007380003F0010E346E366A356ABBEF03F0366A91
:10074800356A346ABBEF03F00450000AD8B4A3EF4B
:1007580003F0010AD8B492EF03F0030AD8B498EF73
:1007680003F0010AD8B49DEF03F0BBEF03F01200C9
:1007780006009EA2C2EF03F0C4EF03F0E0EF03F01F
:100788009E92324A332A335009E17D0E325CD8A05A
:10079800D0EF03F0D2EF03F0E0EF03F03750D8B416
:1007A800D8EF03F0DBEF03F0010EDCEF03F0000EEF
:1007B800376E336A000E326E01921100939493865D
:1007C8001F0E6F166F8E800E6E18D8A4EEEF03F012
:1007D800F0EF03F0E7EF03F0776AE10E706E1B0E9F
:1007E800716E030E726E0D01D46B0F01026B036BF9
:1007F800006B016B1F0E6F166F50600E606E12005B
:10080800960EF66E090EF76E000EF86E00EE2AF0E0
:1008180010EE08F00900F5CFEEFFE550E150FAE1DF
:10082800376A366A356A346A336A326A01900192E5
:10083800000EF86E00018BEF04F06150046E056A3B
:10084800D89004360536D89004360536D890043644
:1008580005366238E842070B070B066E076A045034
:100868000610086E05500710096E08C002F009C08E
:1008780003F01200066E0550800F076E0404D8A41A
:1008880048EF04F04AEF04F04DEF04F00550C00FB4
:10089800076E000E026E075058EC04F0010E026E4F
:1008A800065058EC04F01200036E02B002D0829297
:1008B80001D08282829003C083FF828482948280E6
:1008C800958E82928284829483BE6DEF04F06FEFDE
:1008D80004F066EF04F08290959E12000850D96EDD
:1008E800DA6ADF500A6E080E0A607DEF04F07FEFC7
:1008F80004F08AEF04F0010E046E040E056E0A502F
:100908002A0FD96EDA6ADF503EEC04F01200BBEC15
:1009180004F0E90E046E2F0E056E000E066E000E32
:10092800076EA1EC02F054EC01F009EC00F097EF2F
:1009380004F007EF00F0948E949CAC9CAC8AAC98C1
:10094800AC84AB8EAB9CAB88810EAF6E9E989E9AA2
:100958001200F90ECB6ECA8CCA9ACA98CA86CA8285
:10096800CA80CA84F28EF28C9D829E921200E2ECBA
:1009780003F0ADEC04F09FEC04F0B1EC01F0C6EC30
:1009880004F0120093503C0B936E816A12004E31B2
:0609980032333435365203
:102FE8000053504420472052504D2020544D50202B
:072FF8004900202020000029
:00000001FF
