:04000000FEEF17F008
:1024DC0094500F09946E120052504D203A20000077
:1024EC000000000054454D50203A20000000016EC1
:1024FC009EA883EF12F085EF12F07EEF12F09E98FB
:10250C0001C0ADFF120093503C0B936E95EC12F092
:10251C006EEC12F0A3EC12F0ECEC12F01200C08E88
:10252C00C09AC088C096C090C082C094C292C19A12
:10253C00C198C46AC36AC2801200948E949CAC9CED
:10254C00AC8AAC98AC84AB8EAB9CAB88810EAF6E76
:10255C009E989E9A12006150036E046AD8900336BE
:10256C000436D89003360436D890033604366238D5
:10257C00E842070B070B056E066A03500510076E41
:10258C0004500610086E07C001F008C002F01200DB
:10259C0001C003F0070E0316050E046ED890033627
:1025AC00042ED4EF12F003500F01426F01C003F060
:1025BC0002C004F0D89004320332D89004320332B3
:1025CC00D890043203320350416F120093949386D7
:1025DC001F0E6F166F8E800E6E18D8A4F8EF12F0C7
:1025EC00FAEF12F0F1EF12F0776AE10E706E1B0E3B
:1025FC00716E030E726E0D01D46B0F01026B036BC7
:10260C00006B016B1F0E6F166F50600E606E120028
:10261C00076E07C003F0D8900336D8900336C2502B
:10262C00C30B0310C26EC282C2B21FEF13F021EFB4
:10263C0013F01AEF13F0C350C4CF03F0046A03C0B5
:10264C0004F0036A0310056E0450066E05C001F019
:10265C0006C002F01200E40EF66E240EF76E000EA9
:10266C00F86E00EE60F010EE16F00900F5CFEEFFFC
:10267C00E550E150FAE1000EF66E300EF76E000EEA
:10268C00F86E0900F5CF58F000EE51F0070EEE6A27
:10269C00E806FDE1000EF86E000131EF15F06BEF6E
:1026AC0013F002C0F6FF03C0F7FFF86A050EF764DB
:1026BC0003D00800F55005D0F6CFE9FFF7CFEAFFBD
:1026CC00EF507DEC12F0024A032A02C0F6FF03C061
:1026DC00F7FFF86A050EF76403D00800F55005D033
:1026EC00F6CFE9FFF7CFEAFFEF500009D8A481EF4E
:1026FC0013F083EF13F057EF13F012000350041094
:10270C00D8B48BEF13F08DEF13F0B1EF13F0010E83
:10271C00056E95EF13F0D89003360436052A04AEF7
:10272C009AEF13F09CEF13F091EF13F00350015C50
:10273C0004500258D8A0A5EF13F0A7EF13F0ABEF9D
:10274C0013F00350015E0450025AD8900432033245
:10275C00052E9CEF13F001C001F002C002F0120034
:10276C00000E096E000E0A6E000E0B6E000E0C6E43
:10277C0001A0C3EF13F0C5EF13F0CDEF13F005502C
:10278C00092606500A2207500B2208500C22D8901A
:10279C000536063607360836D89004320332023234
:1027AC0001320150021003100410D8A4E0EF13F012
:1027BC00E2EF13F0BEEF13F009C001F00AC002F013
:1027CC000BC003F00CC004F012000F01436B446B00
:1027DC0005C001F006C002F0CEEC12F008C045FFB7
:1027EC00460E0C6E0F0E0D6E0F6A000E0E6E0DEF78
:1027FC0014F007500E24D96EDA6A0E500C24E16ED8
:10280C000F500D20E26EDFCFE7FF0E4A0F2A085063
:10281C00096E0A6A09500E5C0F50800A0B6E0A5042
:10282C00800A0B58D8A01DEF14F01FEF14F0FFEF27
:10283C0013F00F0140871200066A000E056E03505C
:10284C000410D8B42CEF14F02EEF14F056EF14F053
:10285C00010E076E36EF14F0D89003360436072AB3
:10286C0004AE3BEF14F03DEF14F032EF14F0D890BF
:10287C00053606360350015C04500258D8A049EFC7
:10288C0014F04BEF14F050EF14F00350015E0450B1
:10289C00025A0580D89004320332072E3DEF14F013
:1028AC0005C001F006C002F01200016E0104D8A4AC
:1028BC0062EF14F064EF14F089EF14F082500F0BF8
:1028CC000F0AD8B46CEF14F06EEF14F07BEF14F029
:1028DC005850D8B474EF14F076EF14F07BEF14F07A
:1028EC00586A82500F0B94EF14F082500F0B0F0AA2
:1028FC00D8A483EF14F085EF14F093EF14F0010ECD
:10290C00586E93EF14F00150D8A48FEF14F091EFA0
:10291C0014F093EF14F077EF14F0FF0E120060AE8A
:10292C009AEF14F09CEF14F0DAEF14F0B1EC12F013
:10293C000950D96EDA6A01C0DEFF02C0DDFF0B5010
:10294C00D96EDA6A65CFDFFF660E0F6E0F0E106E52
:10295C00126A000E116EC1EF14F011500F24D96ED3
:10296C0012501020DA6E0A501124E16EE26ADFCFA9
:10297C00E7FF114A122A0B50D96EDA6ADF500C6E3F
:10298C000D6A0C50115C1250800A0E6E0D50800AAC
:10299C000E58D8A0D4EF14F0D6EF14F0B3EF14F017
:1029AC00609EA490DEEF14F00B50D96EDA6ADF6AE9
:1029BC001200000E156E000E166E000E176E000E35
:1029CC00186E1150121013101410D8B4F0EF14F03C
:1029DC00F2EF14F028EF15F0010E196EFCEF14F065
:1029EC00D8901136123613361436192A14AE01EF5C
:1029FC0015F003EF15F0F6EF14F0D89015361636E7
:102A0C001736183611500D5C12500E5813500F58C3
:102A1C0014501058D8A015EF15F017EF15F020EF43
:102A2C0015F011500D5E12500E5A13500F5A1450CF
:102A3C00105A1580D8901432133212321132192ECA
:102A4C0003EF15F015C00DF016C00EF017C00FF007
:102A5C0018C010F0120089EC12F0466A490E096E8B
:102A6C003C0E0A6E4E0E0B6E95EC14F04E50D8B414
:102A7C0042EF15F044EF15F050EF15F0600E4918C9
:102A8C004A10D8A44CEF15F04EEF15F050EF15F09E
:102A9C00010E466E4650D8B456EF15F058EF15F0AF
:102AAC0080EF15F04B6A4C6A030E4D6E066A300EC1
:102ABC00056E4B0E076E020E086EEBEC13F0410E1A
:102ACC003B6EEE0EE82EFED73B2EFCD700D0066AEE
:102ADC00500E056E4D0E076E010E086EEBEC13F0EA
:102AEC00410E3B6EEE0EE82EFED73B2EFCD700D0EF
:102AFC0034EF15F0B5EC15F04D6E0FEC17F01AC065
:102B0C004FF01BC050F050504B6E4FC04CF04CEC83
:102B1C0016F01AC047F01BC048F04850446E47C02E
:102B2C0045F0066A300E056E4B0E076E020E086EEF
:102B3C00EBEC13F0410E3B6EEE0EE82EFED73B2E67
:102B4C00FCD700D0066A400E056E440E076E020ECE
:102B5C00086EEBEC13F065EF15F0FEEF17F0010EBD
:102B6C005BEC14F0046E0E0E0418D8A4C0EF15F034
:102B7C00C2EF15F0D9EF15F05750D8B4C8EF15F0D7
:102B8C00CBEF15F0010ECCEF15F0000E576E575031
:102B9C00D8B4D3EF15F0D5EF15F017EF16F0566A41
:102BAC00556A17EF16F00D0E0418D8A4E0EF15F0C7
:102BBC00E2EF15F0F9EF15F05650D8B4E8EF15F038
:102BCC00EBEF15F0010EECEF15F0000E566E5650B3
:102BDC00D8B4F3EF15F0F5EF15F017EF16F0576AC0
:102BEC00556A17EF16F00B0E0418D8A400EF16F068
:102BFC0002EF16F017EF16F05550D8B408EF16F098
:102C0C000BEF16F0010E0CEF16F0000E556E555032
:102C1C00D8B413EF16F015EF16F017EF16F0576A3D
:102C2C00566A5750D8B41DEF16F01FEF16F028EF68
:102C3C0016F0F40E026E2F0E036E55EC13F0010E0F
:102C4C004BEF16F05650D8B42EEF16F030EF16F0BE
:102C5C0039EF16F0EC0E026E2F0E036E55EC13F0DE
:102C6C00020E4BEF16F05550D8B43FEF16F041EF73
:102C7C0016F04AEF16F0E30E026E2F0E036E55ECB3
:102C8C0013F0030E4BEF16F0000E1200060E0EECB6
:102C9C0013F001C028F002C029F028C001F029C0AF
:102CAC0002F0036A046AF40E056E010E066E000E45
:102CBC00076E000E086EB6EC13F001C00DF002C0EA
:102CCC000EF003C00FF004C010F0FF0E116E030ED7
:102CDC00126E000E136E000E146EDFEC14F00DC0AD
:102CEC002EF00EC02FF02F5009E1630E2E5CD8A0F1
:102CFC0082EF16F084EF16F087EF16F02F6A630E52
:102D0C002E6E20EE6CF010EE1EF0090EDBCFE3FF02
:102D1C00E806FCE22EC030F02FC031F02D6A000E18
:102D2C002C6E2C4A2D2A30C001F031C002F0046AFE
:102D3C000A0E036E22EC14F001C030F002C031F028
:102D4C0030503110D8A4ADEF16F0AFEF16F097EF6E
:102D5C0016F02EC030F02FC031F0060E2C242A6E47
:102D6C00000E2D202B6E2A501E0FD96EDA6A30C041
:102D7C0001F031C002F0046A0A0E036E84EC13F009
:102D8C000150300FDF6E2A06D8A02B0630C001F0A0
:102D9C0031C002F0046A0A0E036E22EC14F001C07A
:102DAC0030F002C031F030503110D8A4E0EF16F002
:102DBC00E2EF16F0B9EF16F02CC01CF0070E1C2633
:102DCC001C501E0FD96EDA6ADF6A51501C6E5250BD
:102DDC001D6E514A522A1D5009E10A0E1C5CD8A0E6
:102DEC00FAEF16F0FCEF16F00AEF17F01E0E026E5B
:102DFC00036A55EC13F0E90E026E2F0E036E55ECC0
:102E0C0013F0526A000E516E2EC01AF02FC01BF038
:102E1C001200000E2E6E000E2F6E000E306E000E85
:102E2C00316E366A040E0EEC13F001502E26025051
:102E3C002F22000E3022000E3122362A0F0E36645D
:102E4C002AEF17F02CEF17F018EF17F02EC01CF02C
:102E5C002FC01DF030C01EF031C01FF0050E3CEF2E
:102E6C0017F0D8901F321E321D321C32E82E37EF6D
:102E7C0017F01CC02CF01DC02DF02CC001F02DC083
:102E8C0002F0036A046A700E056E170E066E000ED1
:102E9C00076E000E086EB6EC13F001C00DF002C008
:102EAC000EF003C00FF004C010F0FF0E116E030EF5
:102EBC00126E000E136E000E146EDFEC14F00DC0CB
:102ECC0037F00EC038F020EE60F010EE20F00B0E54
:102EDC00DBCFE3FFE806FCE237C039F038C03AF04C
:102EEC00356A000E346E344A352A39C001F03AC0C6
:102EFC0002F0046A0A0E036E22EC14F001C039F0E1
:102F0C0002C03AF039503A10D8A48FEF17F091EF75
:102F1C0017F079EF17F037C039F038C03AF0050EDA
:102F2C003424326E000E3520336E3250200FD96EA1
:102F3C00DA6A39C001F03AC002F0046A0A0E036E74
:102F4C0084EC13F00150300FDF6E3206D8A033063C
:102F5C0039C001F03AC002F0046A0A0E036E22EC8A
:102F6C0014F001C039F002C03AF039503A10D8A42C
:102F7C00C2EF17F0C4EF17F09BEF17F034C01CF042
:102F8C00060E1C261C50200FD96EDA6ADF6A5350CD
:102F9C001C6E54501D6E534A542A1D5009E10A0EE2
:102FAC001C5CD8A0DCEF17F0DEEF17F0ECEF17F09D
:102FBC00200E026E036A55EC13F0E90E026E2F0E12
:102FCC00036E55EC13F0546A000E536E37C01AF0B2
:102FDC0038C01BF012000048617A6172640D0A005F
:102FEC0052696768740D0A004C6566740D0A00001E
:052FFC0031EF13F001AC
:00000001FF
