:04000000FEEF17F008
:08279E0094500F09946E120023
:1027A7005350454544203A200000000001F42FE231
:1027B7002FE52FE82FEB2FEE2FF12FF72FF7EC1345
:1027C700F0CFEC13F031EC14F005EC14F01200012B
:1027D7006E9EA8F1EF13F0F3EF13F0ECEF13F09EFA
:1027E7009801C0ADFF1200C08EC09AC088C096C0C5
:1027F70090C082C094C292C19AC198C46AC36AC287
:10280700801200948E949CAC9CAC8AAC98AC84AB40
:102817008EAB9CAB88810EAF6E9E989E9A1200017C
:10282700C003F0070E0316050E046ED89003360496
:102837002E19EF14F003500F01426F01C003F0028D
:10284700C004F0D89004320332D89004320332D84F
:1028570090043203320350416F1200939493861F02
:102867000E6F166F8E800E6E18D8A43DEF14F03FD2
:10287700EF14F036EF14F0776AE10E706E1B0E71ED
:102887006E030E726E0D01D46B0F01026B036B00AA
:102897006B016B1F0E6F166F50600E606E12000794
:1028A7006E07C003F0D8900336D8900336C250C3E2
:1028B7000B0310C26EC282C2B264EF14F066EF144B
:1028C700F05FEF14F0C350C4CF03F0046A03C004F1
:1028D700F0036A0310056E0450066E05C001F0068A
:1028E700C002F01200B40EF66E270EF76E000EF857
:1028F7006E00EE60F010EE10F00900F5CFEEFFE588
:1029070050E150FAE1A70EF66E270EF76E000EF8AB
:102917006E00EE43F010EE0DF00900F5CFEEFFE587
:1029270050E150FAE100EE50F0080EEE6AE806FDBD
:10293700E1000EF86E000199EF16F0B7EF14F00200
:10294700C0F6FF03C0F7FFF86A050EF76403D00867
:1029570000F55005D0F6CFE9FFF7CFEAFFEF50EBD0
:10296700EC13F0024A032A02C0F6FF03C0F7FFF890
:102977006A050EF76403D00800F55005D0F6CFE9D5
:10298700FFF7CFEAFFEF500009D8A4CDEF14F0CF3F
:10299700EF14F0A3EF14F0120003500410D8B4D7CB
:1029A700EF14F0D9EF14F0FDEF14F0010E056EE10E
:1029B700EF14F0D89003360436052A04AEE6EF1478
:1029C700F0E8EF14F0DDEF14F00350015C0450025F
:1029D70058D8A0F1EF14F0F3EF14F0F7EF14F00369
:1029E70050015E0450025AD89004320332052EE893
:1029F700EF14F001C001F002C002F01200000E094E
:102A07006E000E0A6E000E0B6E000E0C6E01A00F0C
:102A1700EF15F011EF15F019EF15F005500926061F
:102A2700500A2207500B2208500C22D89005360670
:102A37003607360836D890043203320232013201A3
:102A470050021003100410D8A42CEF15F02EEF1528
:102A5700F00AEF15F009C001F00AC002F00BC0033D
:102A6700F00CC004F012000F01436B446B05C0016A
:102A7700F006C002F013EC14F008C045FF460E0C38
:102A87006E0F0E0D6E0F6A000E0E6E59EF15F007E2
:102A9700500E24D96EDA6A0E500C24E16E0F500DD9
:102AA70020E26EDFCFE7FF0E4A0F2A0850096E0AB1
:102AB7006A09500E5C0F50800A0B6E0A50800A0B91
:102AC70058D8A069EF15F06BEF15F04BEF15F00F25
:102AD7000140871200066A000E056E03500410D8E5
:102AE700B478EF15F07AEF15F0A2EF15F0010E07A5
:102AF7006E82EF15F0D89003360436072A04AE87A6
:102B0700EF15F089EF15F07EEF15F0D89005360632
:102B1700360350015C04500258D8A095EF15F09782
:102B2700EF15F09CEF15F00350015E0450025A05B3
:102B370080D89004320332072E89EF15F005C001C3
:102B4700F006C002F01200016E0104D8A4AEEF1522
:102B5700F0B0EF15F0D5EF15F082500F0B0F0AD834
:102B6700B4B8EF15F0BAEF15F0C7EF15F04F50D81E
:102B7700B4C0EF15F0C2EF15F0C7EF15F04F6A823A
:102B8700500F0BE0EF15F082500F0B0F0AD8A4CFB0
:102B9700EF15F0D1EF15F0DFEF15F0010E4F6EDFF7
:102BA700EF15F00150D8A4DBEF15F0DDEF15F0DFDE
:102BB700EF15F0C3EF15F0FF0E1200000E156E00B3
:102BC7000E166E000E176E000E186E1150121013AF
:102BD700101410D8B4F2EF15F0F4EF15F02AEF1631
:102BE700F0010E196EFEEF15F0D89011361236135C
:102BF700361436192A14AE03EF16F005EF16F0F85F
:102C0700EF15F0D890153616361736183611500DC1
:102C17005C12500E5813500F5814501058D8A01764
:102C2700EF16F019EF16F022EF16F011500D5E12A5
:102C3700500E5A13500F5A1450105A1580D890142A
:102C470032133212321132192E05EF16F015C00D5C
:102C5700F016C00EF017C00FF018C010F0120001E8
:102C67000EA7EC15F0066E0E0E0618D8A43EEF164A
:102C7700F040EF16F04BEF16F0070E566046EF16D2
:102C8700F048EF16F04BEF16F0562A6BEF16F00DE3
:102C97000E0618D8A452EF16F054EF16F05FEF1691
:102CA700F05650D8B45AEF16F05CEF16F05FEF16F7
:102CB700F056066BEF16F00B0E0618D8A466EF1643
:102CC700F068EF16F06BEF16F0010E576E566A506C
:102CD70050046E5150056E504A512A055009E10AB9
:102CE7000E045CD8A07AEF16F07CEF16F097EF167B
:102CF700F0D70E026E2F0E036EA1EC14F0565002A1
:102D07000DF350600FD96EDA6ADECF02F0DDCF0324
:102D1700F0A1EC14F0DF0E026E2F0E036EA1EC147F
:102D2700F0516A000E506E56501200E2EC13F03F5D
:102D37006A000E3E6E5750D8B4A4EF16F0A6EF16F1
:102D4700F0D6EF16F03E6A3F6A406A066A100E0533
:102D57006E3E0E076E020E086E37EC15F0410E3D03
:102D67006EEE0EE82EFED73D2EFCD700D0066A2069
:102D77000E056E400E076E010E086E37EC15F0411A
:102D87000E3D6EEE0EE82EFED73D2EFCD700D00688
:102D97006A600E056E570E076E010E086E37EC154A
:102DA700F09EEF16F009EC17F01AC041F01BC04275
:102DB700F033EC16F0406E42503E6E41C03FF006D5
:102DC7006A100E056E3E0E076E020E086E37EC1582
:102DD700F0410E3D6EEE0EE82EFED73D2EFCD700DD
:102DE700D0066A200E056E400E076E010E086E377C
:102DF700EC15F0410E3D6EEE0EE82EFED73D2EFC93
:102E0700D700D09EEF16F0FEEF17F0000E2E6E00E3
:102E17000E2F6E000E306E000E316E3A6A040E539E
:102E2700EC14F001502E2602502F22000E30220003
:102E37000E31223A2A0F0E3A6424EF17F026EF17C5
:102E4700F012EF17F02EC01CF02FC01DF030C01E7F
:102E5700F031C01FF0050E36EF17F0D8901F321E65
:102E6700321D321C32E82E31EF17F01CC02CF01D3A
:102E7700C02DF02CC001F02DC002F0036A046AFADD
:102E87000E056E000E066E000E076E000E086E022F
:102E9700EC15F001C00DF002C00EF003C00FF004F6
:102EA700C010F0FF0E116E030E126E000E136E00AF
:102EB7000E146EE1EC15F00DC034F00EC035F020A5
:102EC700EE43F010EE20F00B0EDBCFE3FFE806FC3D
:102ED700E234C03BF035C03CF0376A000E366E3B3B
:102EE700C038F03CC039F0364A372A38C001F039CB
:102EF700C002F0046A0A0E036E6EEC15F001C038CA
:102F0700F002C039F038503910D8A48DEF17F08F80
:102F1700EF17F077EF17F0070E3624326E000E37F3
:102F270020336E3250200FD96EDA6A3BC001F03C75
:102F3700C002F0046A0A0E036ED0EC14F0015030A0
:102F47000FDF6E3206D8A033063BC001F03CC0024B
:102F5700F0046A0A0E036E6EEC15F001C03BF00236
:102F6700C03CF03B503C10D8A4BCEF17F0BEEF17A5
:102F7700F095EF17F036C01CF0080E1C261C5020E9
:102F87000FD96EDA6ADF6A52501C6E53501D6E52AB
:102F97004A532A1D5009E10A0E1C5CD8A0D6EF1728
:102FA700F0D8EF17F0E6EF17F0200E026E036AA1D4
:102FB700EC14F0DF0E026E2F0E036EA1EC14F0532B
:102FC7006A000E526E34C01AF035C01BF0120000B2
:102FD70047454152203A20000D0A00473100473249
:102FE70000473300473400473500473600474E0057
:042FF700475200003D
:042FFC0076EF14F068
:00000001FF
